:100000000C9434000C9446000C9446000C9446006A
:100010000C9446000C9446000C9446000C94460048
:100020000C9446000C9446000C9446000C94460038
:100030000C9446000C9446000C9446000C94460028
:100040000C9446000C9446000C9446000C94460018
:100050000C9446000C9446000C9446000C94460008
:100060000C9446000C94460011241FBECFEFD8E03C
:10007000DEBFCDBF21E0A0E0B1E001C01D92A23003
:10008000B207E1F70E94A4000C94B3000C940000A6
:100090001092B9008CE08093B800089584EA8093B0
:1000A000BC0085E08BB9ECEBF0E080818823ECF7B5
:1000B00008958093BB0084E88093BC00ECEBF0E0F3
:1000C00080818823ECF708958FEF8BB92FEF81EEB5
:1000D00094E0215080409040E1F700C000001BB840
:1000E0002FEF81EE94E0215080409040E1F700C076
:1000F00000000E944E008091B900887F883011F086
:100100008FEF8BB982EC0E9459008091B900887FF3
:10011000883111F08FEF8BB98FE70E9459008091E1
:10012000B900887F883211F08FEF8BB980E00E9490
:1001300059008091B900887F883211F08FEF8BB918
:1001400084E18093BC0008958CEF8AB98FE084B974
:100150008FEC88B90E9448008091000190910101C4
:0A0160000E946400F9CFF894FFCF6D
:00000001FF
